:100000000C942A000C9447000C9447000C94470071
:100010000C9447000C9447000C9447000C94E006A5
:100020000C9447000C9447000C9447000C94470034
:100030000C9447000C9447000C9447000C94470024
:100040000C9447000C9447000C9447000C94470014
:100050000C94470011241FBECFE5D8E0DEBFCDBF12
:1000600011E0A0E6B0E0EAEAFFE002C005900D92E0
:10007000AA36B107D9F721E0AAE6B1E001C01D9286
:10008000AE36B207E1F70E94B2060C94D3070C9487
:100090000000DC0180E040E012C0FD01E40FF11D32
:1000A000208190E009C0382F3227869530FF02C0AA
:1000B0003CE8832726959F5F9830A8F34F5F46174B
:1000C00060F308958F929F92AF92BF92CF92DF928A
:1000D000EF92FF920F931F93CF93DF937C016B01FD
:1000E0005A01D22F4801012B21F40CEC0E945C072D
:1000F00012C005E50E945C07C0E00BC0F401EC0FE4
:10010000F11D00812D2FA501B601C7010E945C07DA
:10011000CF5FC83098F3DF91CF911F910F91FF907F
:10012000EF90DF90CF90BF90AF909F908F90089509
:10013000BF92CF92DF92EF92FF920F931F93CF93D4
:10014000DF93EC017B016A01B22E0E94FE06813032
:1001500071F02B2DA601B701CE010E94620004E4CC
:100160002B2DA601B701CE010E945C0780E0DF9134
:10017000CF911F910F91FF90EF90DF90CF90BF90A4
:1001800008958F929F92AF92BF92CF92DF92EF929B
:10019000FF920F931F93CF93DF936C015B014A0192
:1001A000D22F0E94FE068130D9F12D2FA401B50176
:1001B000C6010E9462000EEB2D2FA401B501C601FD
:1001C0000E945C07C0E00CC087010C0F111D2D2F91
:1001D000A401B501C6010E94A707F8018083CF5F83
:1001E000C93090F3F701708181816281538144812C
:1001F000358126819781872B862B852B842B832B1A
:10020000822B892B51F068E0C7010E944900F70159
:100210009085891721F082E003C083E001C080E06F
:10022000DF91CF911F910F91FF90EF90DF90CF90D2
:10023000BF90AF909F908F900895CF92DF92EF92F2
:10024000FF920F931F93CF93DF93CDB7DEB729971C
:100250000FB6F894DEBF0FBECDBF6701FE01319629
:100260007F010E94C100882321F0F60111821082D3
:100270000BC08A8190E0982F88272981820F911DD9
:10028000F6019183808380E029960FB6F894DEBF53
:100290000FBECDBFDF91CF911F910F91FF90EF90D7
:1002A000DF90CF90089598B39F70282F207F922BD6
:1002B00098BB98B39E7F98BB98B3926098BB00C0E0
:1002C000000098B39D7F98BB34E63A95F1F728B3C8
:1002D00030E1839FC0011124922F9F70892B88BB2E
:1002E00088B3826088BB00C0000088B38D7F88BB64
:1002F0008BED95E00197F1F700C00000089598B3E9
:100300009F70282F207F922B98BB98B3916098BB49
:1003100098B3926098BB00C0000098B39D7F98BBD3
:1003200034E63A95F1F728B330E1839FC0011124F8
:10033000922F9F70892B88BB88B3826088BB00C0D6
:10034000000088B38D7F88BB8BED95E00197F1F7B6
:1003500000C0000008958FEF87BB87E99AE30197FB
:10036000F1F700C0000082E00E94530188E20E9481
:1003700053018CE00E94530181E00E94530182E806
:100380000E94530108950F931F93CF93DF938C0125
:10039000C0E0D0E003C00E947F012196F801EC0F7D
:1003A000FD1F80818111F7CFDF91CF911F910F91B8
:1003B00008958FEF87BB80EE81BB0E94AB018BE479
:1003C0009DE10197F1F700C000008CE00E9453010D
:1003D0008BE49DE10197F1F700C00000089580EFE4
:1003E0008ABB8FEF8BBB8BB38F708BBB000089B345
:1003F0008F7080936C018F30B1F78FE39CE9019788
:10040000F1F700C0000089B38F7080936C018F30CA
:10041000A1F39FEF29EF80E0915020408040E1F769
:1004200000C0000089B38F7080936C018F3029F376
:100430008FEE8BBB000089B38F7080936C018F307F
:1004400019F010926D0127C08FED8BBB000089B3AE
:100450008F7080936C018F3021F081E080936D016B
:100460001AC08FEB8BBB000089B38F7080936C0137
:100470008F3021F082E080936D010DC08FE78BBB40
:10048000000089B38F7080936C018F3009F4A7CF7F
:1004900083E080936D0180916C018E3059F4E0917E
:1004A0006D01F0E0EE0FFF1FEE0FFF1FE05AFF4F50
:1004B000808108958D3059F4E0916D01F0E0EE0FE8
:1004C000FF1FEE0FFF1FE05AFF4F818108958B3011
:1004D00059F4E0916D01F0E0EE0FFF1FEE0FFF1FEA
:1004E000E05AFF4F82810895E0916D01F0E0EE0F38
:1004F000FF1FEE0FFF1FE05AFF4F83810895819B7E
:1005000003C080E090E0089581E090E00895EF92CC
:10051000FF920F931F93CF93DF9300D0CDB7DEB739
:1005200000E010E020E840E350E061E370E082E3A7
:1005300090E00E9498002FEF80E792E021508040E9
:100540009040E1F700C00000CE0101967C0120E858
:1005500040E350E061E370E082E390E00E941D011F
:1005600089819A8199230CF40F9695958795959595
:10057000879595958795959587950F900F90DF9125
:10058000CF911F910F91FF90EF9008950F931F93BC
:10059000CF93DF93EC018B0181E00E94530180E84F
:1005A0000E94530180E790E00E94C3012FEF84E393
:1005B0009CE0215080409040E1F700C000000BC05B
:1005C00082E085BB2FEF89E698E121508040904082
:1005D000E1F700C000000E9487028C179D0784F39A
:1005E0000E9487029E012B5F3F4F281739073CF07E
:1005F0000E94870225978C179D070CF015BA81E0A1
:100600000E94530180E80E94530180E890E00E941C
:10061000C3012FEF89E698E1215080409040E1F737
:1006200000C0000081E00E94530180E80E94530155
:1006300081E990E00E94C3012FEF84E39CE0215008
:1006400080409040E1F700C0000084E085BB2FEFC0
:100650008EE994E2215080409040E1F700C0000014
:1006600010936B0100936A0188E08EBD8BE197EBDC
:100670009BBD8ABD80E189BF78948EB585608EBDB3
:100680002FEF81EE94E0215080409040E1F700C0D0
:10069000000015BA81E00E94530180E80E945301D6
:1006A0008BE291E00E94C30181E00E94530180E847
:1006B0000E945301DF91CF911F910F910895CF9325
:1006C000DF93EC0181E00E94530180E80E94530116
:1006D00081E990E00E94C3012FEF81EE94E0215068
:1006E00080409040E1F700C0000084E085BB2FEF20
:1006F0008EE994E2215080409040E1F700C0000074
:10070000D0936B01C0936A0188E08EBD8BE197EBBB
:100710009BBD8ABD80E189BF78948EB585608EBD12
:100720002FEF81EE94E0215080409040E1F700C02F
:10073000000015BA81E00E94530180E80E94530135
:100740008BE291E00E94C30181E00E945301DF919E
:10075000CF91089581E00E94530180E80E945301E7
:100760008EE990E00E94C3012FEF81EE94E02150CA
:1007700080409040E1F700C0000002C088E085BBE7
:100780000E947F020197D1F315BA81E00E945301C4
:10079000089581E00E94530180E80E9453018CEA91
:1007A00090E00E94C3012FEF81EE94E02150804041
:1007B0009040E1F700C0000002C081E085BB0E94CC
:1007C0007F02892BD1F315BA0895CF93DF9380E888
:1007D0000E9453018AEB90E00E94C3012FEF81EE4B
:1007E00094E0215080409040E1F700C0000080EC90
:1007F0000E94530186EC90E00E94C3012FEF81EE2E
:1008000094E0215080409040E1F700C0000031C0EA
:1008100081E00E94530180E80E94530180ED90E046
:100820000E94C3012FEF81EE94E021508040904060
:10083000E1F700C0000080EC0E9453018CEA90E0D8
:100840000E94C3012FEF81EE94E021508040904040
:10085000E1F700C000000E94C9032FEF84E39CE091
:10086000215080409040E1F700C0000081E00E94EC
:1008700053010E947F02892B59F281E00E945301AB
:1008800080E80E94530180EE90E00E94C3012FEFA8
:1008900081EE94E0215080409040E1F700C00000DC
:1008A00081E00E94530180E80E94530181EF90E0B3
:1008B0000E94C3012FEF81EE94E0215080409040D0
:1008C000E1F700C00000C0E0D0E009C00E94C90309
:1008D00083E090E00E945F030E94AA032196C33048
:1008E000D105A4F3DF91CF910895CF93DF9380E8F2
:1008F0000E94530181E091E00E94C3012FEF81EE3D
:1009000094E0215080409040E1F700C0000080EC6E
:100910000E94530186EC90E00E94C3012FEF81EE0C
:1009200094E0215080409040E1F700C000000E9418
:100930007F02892B89F581E00E94530180E80E94A3
:10094000530180ED90E00E94C3012FEF81EE94E00F
:10095000215080409040E1F700C0000080EC0E94F0
:1009600053018CEA90E00E94C3012FEF81EE94E0E6
:10097000215080409040E1F700C000000E94C90370
:100980002FEF84E39CE0215080409040E1F700C0CD
:10099000000081E00E94530181E00E94530180E841
:1009A0000E94530180EE90E00E94C3012FEF81EE80
:1009B00094E0215080409040E1F700C0000081E0C9
:1009C0000E94530180E80E94530181EF90E00E9451
:1009D000C3012FEF81EE94E0215080409040E1F779
:1009E00000C00000C0E0D0E009C00E94C90382E05E
:1009F00090E00E945F030E94AA032196C230D105B5
:100A0000A4F3DF91CF910895CF93DF93EC0181E0C0
:100A10000E94530180E80E9453018EE091E00E9401
:100A2000C3012FEF81EE94E0215080409040E1F728
:100A300000C000000E94C90381E00E94530180E8C9
:100A40000E94530188E191E00E94C3012FEF81EEE3
:100A500094E0215080409040E1F700C0000002C0C7
:100A600082E085BB0E9487028C179D07CCF30E9411
:100A700087029E012B5F3F4F2817390744F00E94E1
:100A8000870225978C179D0714F082E085BB81E0D3
:100A90000E94530180E80E94530184E291E00E9489
:100AA000C3012FEF81EE94E0215080409040E1F7A8
:100AB00000C00000DF91CF910895CF93DF9380E8CD
:100AC0000E94530186E391E00E94C30180EC0E94E2
:100AD000530186EC90E00E94C3012FEF84E39CE079
:100AE000215080409040E1F700C0000028C081E024
:100AF0000E94530180E80E94530180ED90E00E9423
:100B0000C3012FEF84E39CE0215080409040E1F747
:100B100000C0000080EC0E9453018CEA90E00E942B
:100B2000C3010E94C9032FEF84E39CE02150804061
:100B30009040E1F700C0000081E00E9453010E9454
:100B40007F02892BA1F281E00E94530180E80E947C
:100B5000530180EE90E00E94C3012FEF81EE94E0FC
:100B6000215080409040E1F700C0000081E00E94E9
:100B7000530180E80E94530181EF90E00E94C3017D
:100B80002FEF81EE94E0215080409040E1F700C0CB
:100B9000000062E070E08CE390E00E94C6022FEF5C
:100BA00081EE94E0215080409040E1F700C00000C9
:100BB0000E94AA03C0E0D0E009C00E94C90382E0FD
:100BC00090E00E945F030E94AA032196C430D105E1
:100BD000A4F380E590E00E9404052FEF81EE94E0FD
:100BE000215080409040E1F700C000000E94AA031D
:100BF0002FEF81EE94E0215080409040E1F700C05B
:100C00000000DF91CF910895CF93DF9380E80E9499
:100C1000530184E491E00E94C30180EC0E945301DF
:100C200086EC90E00E94C3012FEF84E39CE021500A
:100C300080409040E1F700C0000031C081E00E9498
:100C4000530180E80E94530180ED90E00E94C301AF
:100C50002FEF81EE94E0215080409040E1F700C0FA
:100C6000000080EC0E9453018CEA90E00E94C301D6
:100C70002FEF81EE94E0215080409040E1F700C0DA
:100C800000000E94C9032FEF84E39CE021508040C4
:100C90009040E1F700C0000081E00E9453010E94F3
:100CA0007F02892B59F281E00E94530180E80E9463
:100CB000530180EE90E00E94C3012FEF81EE94E09B
:100CC000215080409040E1F700C0000081E00E9488
:100CD000530180E80E94530181EF90E00E94C3011C
:100CE0002FEF81EE94E0215080409040E1F700C06A
:100CF000000062E070E08CE390E00E94C6022FEFFB
:100D000084E39CE0215080409040E1F700C0000067
:100D1000C0E0D0E009C00E94C90382E090E00E94D8
:100D20005F030E94AA032196C630D105A4F380E593
:100D300090E00E9404052FEF81EE94E02150804066
:100D40009040E1F700C000000E94AA032FEF81EE5F
:100D500094E0215080409040E1F700C00000DF9116
:100D6000CF9108958FEF84BB1ABA11BA0E94D901AE
:100D700080E591E00E94C30180EC0E9453010E9433
:100D8000EF01C82F0E947F01C23361F018F4C13314
:100D900031F011C0C33349F0C43351F00CC00E948C
:100DA0005D05E6CF0E940406E3CF0E94E503E0CF95
:100DB0000E947504DDCF8DE591E00E94C301D8CF7C
:100DC0001F920F920FB60F9211248F939F938091D1
:100DD0006A0190916B01019690936B0180936A0177
:100DE00007972CF010926B0110926A0115BA9F912F
:100DF0008F910F900FBE0F901F901895CF93DF9398
:100E0000DC01FB013FB78C91822B8C938081822B7C
:100E100080839C91822F809598239C9398EC9A953F
:100E2000F1F7908189238083C7E1CA95F1F700002B
:100E3000EA0198819223D2E4DA95F1F700C08C910F
:100E4000822B8C938081282B208388EC8A95F1F764
:100E50003FBF81E0911101C080E0DF91CF91089503
:100E60000F93FC019FB78081822B8083DB018C91E3
:100E7000822B8C938081322F3095832380830023B3
:100E800029F0B2E0BA95F1F700C004C08AE18A9572
:100E9000F1F700C08081282B2083002329F0AAE1EC
:100EA000AA95F1F700C001C000C09FBF81E0011109
:100EB00001C080E00F9108959F92AF92BF92CF92B0
:100EC000DF92EF92FF920F931F93CF93DF935C011A
:100ED0006B017A01122FD02F9FB6C1E009C00C2FF1
:100EE0000D23212FA701B601C5010E943007CC0FA9
:100EF000C111F5CF9FBEDF91CF911F910F91FF9050
:100F0000EF90DF90CF90BF90AF909F900895DC015D
:100F1000FB013FB78C91822B8C938081822B808345
:100F20008C91922F909589238C9300C08081982377
:100F3000908300C000C00000FA018081282381E076
:100F400009F480E0F4E1FA95F1F73FBF0895AF921C
:100F5000BF92CF92DF92EF92FF920F931F93CF93A6
:100F6000DF935C016B017A01122F0FB7C1E0D0E073
:100F70000BC0212FA701B601C5010E9487078C9FD6
:100F8000C0011124D82BCC0FC111F3CF0FBF8D2F6F
:100F9000DF91CF911F910F91FF90EF90DF90CF9055
:0A0FA000BF90AF900895F894FFCFC2
:100FAA003738392F3435362A3132332D20303D2B1C
:100FBA005774722048656174732055702E2E2E0066
:100FCA0048656174696E672046696E69736865640D
:100FDA00002057617368696E672E2E2E2000204408
:100FEA007261696E696E672E2E2E20002057617419
:100FFA00657220496E2E2E2E2000204661737420C1
:10100A004D6F6465200020456E61626C6564200046
:10101A00205761746572204C766C204C6F772000E3
:10102A00205761746572204C766C20486967682085
:10103A0000576173682050726F63657373696E67D6
:10104A0000204672756974204D6F64652000205730
:10105A0061746572496E200020447279696E672E48
:10106A002E2E200020447279696E672046696E69C7
:10107A00736865642000204E6F726D616C204D6F3D
:10108A0064652000204C6F6E67204D6F64652000F8
:10109A00456E7465722061206D6F64650020577219
:0A10AA006F6E6720696E70757400A8
:00000001FF
